:100000000C94C9090C940D0A0C940D0A0C940D0A59
:100010000C940D0A0C940D0A0C940D0A0C940D0A04
:100020000C940D0A0C940D0A0C9423340C94F534A2
:100030000C94C7240C940D0A0C940D0A0C940D0A10
:100040000C940D0A0C940D0A0C940D0A0C940D0AD4
:100050000C940D0A0C943A250C940D0A0C940D0A7C
:100060000C940D0A0C940D0A0C940D0A0C940D0AB4
:100070000C940D0A0C940D0A0C940D0A0C940D0AA4
:100080000C940D0A0C940D0A0C940D0A0C940D0A94
:100090000C940D0A0C940D0A0C940D0A0C940D0A84
:1000A0000C940D0A0C940D0A0C940D0ACC0BD20B77
:1000B000D60BD90BDD0BE10BE50BE90BEE0BF20BCD
:1000C000F60BFA0BFD0B010C050C090C0D0C120CB8
:1000D000E01AE01A1A1B1A1B5D1B7F1BEE1CEE1C9C
:1000E000C51BEE1C6C1C6C1CE21CEE1CEE1CE91CFF
:1000F000791C791C791C791C791C791C791C791C58
:10010000791C791C791C791C791C791C791C791C47
:100110008B1C9B1CA21CA91CB31C821D821D951D3F
:10012000951D8B1D951D951D951D821D821D911D73
:10013000951D951D911D5A3581356F3681356F3668
:10014000C935EC356F364236513603E103E2000221
:10015000E102E200290014001A000800150017004F
:100160001C0018000C00120013002A002B000400D1
:100170001600070009000A000B000D000E000F001A
:1001800033002800E1001D001B00060019000500D7
:10019000110010003600370052003800E000E20085
:1001A000E3002C000000000000000151025150004B
:1001B00051004F0001001E001F00200021002200FE
:1001C000230024002500260027004C000100210008
:1001D000220023000100010001002D002E002F004D
:1001E000300001000100240025002600010001006C
:1001F0000100010034003500A900310001000100B8
:100200002700010000000000000001000351AE00C3
:10021000AA00AB003A003B003C003D003E003F001E
:10022000400041004200430044004500010001003D
:1002300001000100010001000100010001000100B6
:1002400001000100010001000100010001000100A6
:10025000010001000100010048000100010001004F
:100260000100010000000000000003510100010036
:100270004700010001000100010001000100010030
:100280000100010001000100010001000100010066
:100290000100010001000100010001000100010056
:1002A00001000100005C01000100010001000100EB
:1002B0000100010001000100010001000100010036
:1002C0000100010000000000000001000100010029
:1002D0000100010044454255473A20656E61626C59
:1002E00065642E0A0000000000000000002A2B2890
:1002F00000000000000000000000000000000000FE
:1003000029000000002C1E34202122243426272519
:100310002E362D3738271E1F202122232425263351
:1003200033362E37381F0405060708090A0B0C0D53
:100330000E0F101112131415161718191A1B1C1D65
:100340002F3130232D350405060708090A0B0C0D43
:100350000E0F101112131415161718191A1B1C1D45
:100360002F3130354C00000000000000000000007C
:10037000000000000000000000000000000000007D
:100380000000000000000101010101010001010164
:10039000010000000000000000000000000000015B
:1003A000000100010101010101010101010101013F
:1003B000010101010101010101010101010101012D
:1003C000000000010100000000000000000000002B
:1003D000000000000000000000000000000000001D
:1003E00001010101000A002530313662003A200087
:1003F00025303258000A722F6320303132333435C1
:10040000363738394142434445460A007267626CC8
:10041000696768742073657420687376205B4E4F3B
:10042000454550524F4D5D3A2025752C25752C259C
:10043000750A007267626C6967687420736574205E
:10044000687376205B454550524F4D5D3A202575C7
:100450002C25752C25750A007267626C69676874B3
:10046000207261696E626F7720736574206873769D
:100470003A2025752C25752C25642C25750A0072CB
:1004800067626C696768742064697361626C652077
:100490005B6E6F454550524F4D5D3A207267626CFE
:1004A000696768745F636F6E6669672E656E616207
:1004B0006C65203D2025750A007267626C6967686B
:1004C000742064697361626C65205B454550524FCE
:1004D0004D5D3A207267626C696768745F636F6E26
:1004E0006669672E656E61626C65203D2025750A20
:1004F000007267626C6967687420656E61626C6522
:10050000205B4E4F454550524F4D5D3A2072676219
:100510006C696768745F636F6E6669672E656E618C
:10052000626C65203D2025750A007267626C696700
:10053000687420656E61626C65205B454550524F62
:100540004D5D3A207267626C696768745F636F6EB5
:100550006669672E656E61626C65203D2025750AAF
:10056000007267626C6967687420746F67676C6596
:10057000205B454550524F4D5D3A207267626C6971
:100580006768745F636F6E6669672E656E61626C23
:1005900065203D2025750A007267626C6967687482
:1005A000206D6F6465205B4E4F454550524F4D5D49
:1005B0003A2025750A007267626C69676874206D5D
:1005C0006F6465205B454550524F4D5D3A2025755F
:1005D0000A007267626C696768745F696E6974208B
:1005E0007267626C696768745F636F6E6669672EB5
:1005F0006D6F6465203D20302E2057726974652030
:1006000064656661756C742076616C7565732074C1
:100610006F20454550524F4D2E0A007267626C693B
:100620006768745F696E6974206565636F6E66697B
:1006300067206973206E6F7420656E61626C6564FB
:100640002E0A007267626C696768745F696E69740C
:10065000207374617274210A007267626C69676842
:10066000745F696E69742063616C6C65642E0A0046
:100670007267626C696768745F636F6E6669672E24
:100680007370656564203D2025640A007267626CA2
:10069000696768745F636F6E6669672E76616C2048
:1006A0003D2025640A007267626C696768745F6345
:1006B0006F6E6669672E736174203D2025640A00A1
:1006C0007267626C696768745F636F6E6669672ED4
:1006D000687565203D2025640A007267686C69674B
:1006E00068745F636F6E6669672E6D6F6465203D29
:1006F0002025640A007267626C696768745F636FC3
:100700006E6669672E656E61626C65203D202564AA
:100710000A007267626C696768745F636F6E66690E
:1007200067206570726F6D0A006801F000B4007890
:10073000005A000000000000010101010101010157
:100740000102020202020202020203030303030384
:100750000303040404040404050505050506060650
:10076000060607070707080808080909090A0A0A08
:100770000A0B0B0B0C0C0C0D0D0D0E0E0F0F0F10AA
:100780001011111112121313141415151616171730
:10079000181819191A1A1B1C1C1D1D1E1F1F20209A
:1007A0002122222324252526272728292A2B2B2CE2
:1007B0002D2E2F2F30313233343536363738393A03
:1007C0003B3C3D3E3F4041424344464748494A4BFB
:1007D0004C4D4F50515253555657585A5B5C5E5FC3
:1007E000606263646667696A6C6D6E70717374765B
:1007F00078797B7C7E8081838486888A8B8D8F91BB
:10080000929496989A9B9D9FA1A3A5A7A9ABADAFE3
:10081000B1B3B5B7B9BBBDBFC1C4C6C8CACCCFD1CF
:10082000D3D6D8DADCDFE1E4E6E8EBEDF0F2F5F779
:10083000FAFCFF0A002530325820006B6579626FA0
:100840006172645F7265706F72743A20000A0025ED
:10085000303258006B6579626F6172645F736574E2
:100860005F6C65643A200064656C5F6B65795F62FC
:1008700069743A2063616E27742064656C3A2025A0
:100880003032580A006164645F6B65795F62697435
:100890003A2063616E2774206164643A2025303207
:1008A000580A00646F6E652E0A00626F6F746D6186
:1008B000676963207363616E3A202E2E2E20002913
:1008C0000A002575002F002575005D2800256400AD
:1008D0002000256400200025640020002564007CA1
:1008E0000025303258006D6F7573656B6579205B3C
:1008F00062746E7C782079207620685D287265703D
:100900002F61636C293A205B006D6B5F77686565CA
:100910006C5F74696D655F746F5F6D6178203D20F9
:1009200025640A006D6B5F776865656C5F6D617843
:100930005F7370656564203D2025640A006D6B5F00
:1009400074696D655F746F5F6D6178203D2025640B
:100950000A006D6B5F6D61785F7370656564203D43
:100960002025640A006D6B5F696E74657276616C38
:10097000203D2025640A006D6B5F64656C61792001
:100980003D2025640A006D6B5F776865656C5F7458
:10099000696D655F746F5F6D6178203D2025640A25
:1009A000006D6B5F776865656C5F6D61785F737014
:1009B000656564203D2025640A006D6B5F74696D78
:1009C000655F746F5F6D6178203D2025640A006D5E
:1009D0006B5F6D61785F7370656564203D20256491
:1009E0000A006D6B5F696E74657276616C203D20E4
:1009F00025640A006D6B5F64656C6179203D20257C
:100A0000640A000A00257500363A20776865656C2F
:100A10005F74696D655F746F5F6D61783A20000A7D
:100A200000257500353A20776865656C5F6D6178E3
:100A30005F73706565643A20000A00257500343ADA
:100A40002074696D655F746F5F6D61783A20000A8C
:100A500000257500333A206D61785F7370656564B9
:100A60003A20000A00257500323A20696E746572DA
:100A700076616C286D73293A20000A0025750031D3
:100A80003A2064656C6179282A31306D73293A20E7
:100A9000000A092D2056616C756573202D0A004DE2
:100AA0003E004D25643E20003F0073657420646560
:100AB0006661756C740A00433E2000776865726554
:100AC0002064656C74613A20637572736F723D25A2
:100AD000642C20776865656C3D25640A5365652044
:100AE000687474703A2F2F656E2E77696B69706524
:100AF0006469612E6F72672F77696B692F4D6F750F
:100B000073655F6B6579730A000A092D204D6F7557
:100B100073656B6579202D0A4553432F713A09712E
:100B20007569740A313A0964656C6179282A313033
:100B30006D73290A323A09696E74657276616C28A0
:100B40006D73290A333A096D61785F737065656466
:100B50000A343A0974696D655F746F5F6D61780A74
:100B6000353A09776865656C5F6D61785F737065AC
:100B700065640A363A09776865656C5F74696D6506
:100B80005F746F5F6D61780A0A703A097072696EFE
:100B9000742076616C7565730A643A097365742014
:100BA00064656661756C74730A75703A092B310A55
:100BB000646F776E3A092D310A706775703A092BA8
:100BC00031300A7067646F776E3A092D31300A0A46
:100BD0007370656564203D2064656C7461202A2013
:100BE0006D61785F7370656564202A202872657076
:100BF000656174202F2074696D655F746F5F6D612E
:100C000078290A003F004D3E2000433E20004C253D
:100C1000640A0074696D65725F72656164333228BD
:100C2000293A202530346C580A006B65796D617063
:100C30005F636F6E6669672E6E6B726F3A20255820
:100C40000A006B6579626F6172645F69646C653A12
:100C50002025580A006B6579626F6172645F70725B
:100C60006F746F636F6C3A2025580A00686F737455
:100C70005F6B6579626F6172645F6C65647328296C
:100C80003A2025580A000A092D205374617475739F
:100C9000202D0A004743433A20342E382E3120417C
:100CA00056522D4C4942433A20312E382E3073761D
:100CB0006E204156525F415243483A206176723568
:100CC0000A004F5054494F4E533A204C554641204C
:100CD000424F4F544D41474943204D4F5553454B8B
:100CE00045592045585452414B455920434F4E5386
:100CF0004F4C4520434F4D4D414E44204E4B524F9B
:100D000020343039360A004255494C443A202230CA
:100D10002E362E34332D64697274792220283130B6
:100D20003A35363A3537204D61722032392032302B
:100D30003139290A005649443A2030784645414520
:100D40002854686556616E204B6579626F617264E4
:100D50007329205049443A20307838383437284DA8
:100D6000696E6956616E29205645523A20307830B6
:100D70003030310A00444553433A20486F7473774A
:100D80006170204D696E6956616E203430250A000D
:100D90000A092D2056657273696F6E202D0A000AAC
:100DA000092D20436F6E736F6C65202D0A455343E8
:100DB0002F713A09717569740A6D3A096D6F75730F
:100DC000656B65790A000A092D204D61676963200A
:100DD0002D0A443A094465627567204D6573736155
:100DE000676520546F67676C650A583A094D6174EE
:100DF000726978204465627567204D6F6465205480
:100E00006F67676C65202D2053686F77206B65795D
:100E10007072657373657320696E206D6174726999
:100E20007820677269640A4B3A094B6579626F6191
:100E3000726420446562756720546F67676C652033
:100E40002D2053686F77206B6579707265737320FE
:100E50007265706F72740A4D3A0944656275672055
:100E60004D6F75736520546F67676C650A563A0954
:100E700056657273696F6E0A533A095374617475DB
:100E8000730A433A09416374697661746520436F5C
:100E90006E736F6C65204D6F64650A46312D463167
:100EA000303A0953776974636820746F204C617914
:100EB000657220302D392028463130203D204C30BD
:100EC000290A302D393A0953776974636820746FA1
:100ED000204C6179657220302D390A4553433A0917
:100EE00053776974636820746F204C617965722050
:100EF000302028616C7465726E617465206B657951
:100F00002031290A47524156453A0953776974639B
:100F10006820746F204C6179657220302028616CE4
:100F20007465726E617465206B65792032290A5090
:100F3000415553453A094A756D7020746F20426FD0
:100F40006F746C6F616465722028526573657429D3
:100F50000A453A095072696E7420454550524F4D0A
:100F60002053657474696E67730A4E3A094E4B528A
:100F70004F20546F67676C650A000A002575002EC4
:100F80006E6B726F3A20000A002575002E73776130
:100F9000705F6261636B736C6173685F6261636BE6
:100FA00073706163653A20000A002575002E73771F
:100FB00061705F67726176655F6573633A20000AEE
:100FC000002575002E6E6F5F6775693A20000A0074
:100FD0002575002E737761705F72616C745F726744
:100FE00075693A20000A002575002E737761705FDD
:100FF0006C616C745F6C6775693A20000A00257536
:10100000002E636170736C6F636B5F746F5F636FEF
:101010006E74726F6C3A20000A002575002E73778B
:1010200061705F636F6E74726F6C5F636170736C1D
:101030006F636B3A20000A0025303258006B6579E7
:101040006D61705F636F6E6669672E7261773A20BB
:10105000000A002575002E6D6F7573653A20000A31
:10106000002575002E6B6579626F6172643A20000D
:101070000A002575002E6D61747269783A20000AA5
:10108000002575002E656E61626C653A20000A00CD
:10109000253032580064656275675F636F6E6669FC
:1010A000672E7261773A20000A0025750064656634
:1010B00061756C745F6C617965723A20003F004E17
:1010C0004B524F3A206F66660A004E4B524F3A2001
:1010D0006F6E0A000A6D6F7573653A206F66660A57
:1010E000000A6D6F7573653A206F6E0A000A6B65B2
:1010F00079626F6172643A206F66660A000A6B65F6
:1011000079626F6172643A206F6E0A000A6D6174D1
:101110007269783A206F66660A000A6D61747269B6
:10112000783A206F6E0A000A64656275673A206F2C
:1011300066660A000A64656275673A206F6E0A0087
:101140000A0A4A756D70696E6720746F20626F6F4E
:10115000746C6F616465722E2E2E2000433E200059
:101160006565636F6E6669673A0A005B735D004B85
:101170006579626F6172642073746172742E0A0003
:101180005B575D005B535D005B525D005B445D003F
:101190005B435D0004033000000010034D00690054
:1011A0006E006900560061006E00000022035400CA
:1011B00068006500560061006E0020004B0065006D
:1011C000790062006F00610072006400730000002B
:1011D0000403090409028D00050100A0320904007E
:1011E0000001030101000921110100012240000753
:1011F00005810308000A0904010001030102000936
:101200002111010001224D000705820308000A098F
:10121000040200010300000009211101000122362F
:10122000000705830308000A090403000203000005
:10123000000921110100012222000705840320007A
:101240000107050403200001090404000103000054
:101250000009211101000122390007058503200042
:10126000011201100100000008AEFE4788010001D4
:1012700002030105010906A101050719E029E71587
:1012800000250195087501810205081901290595B8
:101290000575019102950175039101050719002952
:1012A000F71500250195F875018102C00631FF0987
:1012B00074A1010975150026FF00952075088102AB
:1012C0000976150026FF00952075089102C00501DA
:1012D0000980A10185021601002603001A81002A57
:1012E0008300751095018100C0050C0901A10185DD
:1012F00003160100269C021A01002A9C0275109513
:10130000018100C005010902A1010901A10005092F
:101310001901290515002501950575018102950121
:10132000750381010501093009311581257F950279
:101330007508810609381581257F95017508810694
:10134000050C0A38021581257F950175088106C0B4
:10135000C005010906A101050719E029E7150025C7
:10136000019508750181029501750881010508192B
:1013700001290595057501910295017503910105F6
:1013800007190029FF150026FF0095067508810042
:10139000C00011241FBECFEFDAE0DEBFCDBF04B620
:1013A00003FE24C080913A0290913B02A0913C023E
:1013B000B0913D028730904BA740B04BB9F41092EA
:1013C0003A0210923B0210923C0210923D0214BE6F
:1013D00084B7877F84BF88E10FB6F894809360005C
:1013E000109260000FBEE0E0F8E3099511E0A0E084
:1013F000B1E0E0E5FEE602C005900D92A634B1072B
:10140000D9F722E0A6E4B1E001C01D92AA33B207E9
:10141000E1F70E9443310C9426370C940000FF93AF
:10142000EF93E0914601F0914701309709F009955B
:10143000EF91FF910895FC018591803011F0EFDF6D
:10144000FBCF0895FF27E0E230E247FF0CC0419553
:1014500097FF09C0EDE26095709580959095611DAC
:10146000711D811D911D27FF02C0219530E350E2BF
:10147000AA27660F771F881F991FAA1FA41710F0AD
:10148000A41B63955A95A9F7AA3008F0A95FA05D3F
:10149000AF93F395611571058105910541F7ED3223
:1014A00011F4EF93F395F21718F43F93F395FBCFF4
:1014B0008F91B5DFFA95E1F70895E991F99185915A
:1014C000803021F0853219F0AADFF9CF089520E0AD
:1014D000E89455915532C1F3503311F46894559105
:1014E0005A3348F4505390F3220F022E220F220F4A
:1014F000200D250FF4CF0EF4219589919991533643
:1015000019F3533729F1533559F1BC01882799272D
:10151000E8945C3621F489919991689455915436F8
:1015200039F446EF7EF077FF0DC08FEF9FEF0AC0D2
:1015300055374AE039F0583540E121F0523642E063
:1015400009F00895FF93EF937DDFEF91FF91B7CFFF
:10155000FF93EF93FC0181918030B9F360DFFBCF03
:10156000FF93EF9368DFF1CFDF93CF93CDB7DEB773
:101570002596A3DFCF91DF9108950C94DF0A0C9498
:101580000A110C94C50A0C94190BCF93FB01C2816C
:10159000CC2349F08A3D9C4579F48FE491E00E9488
:1015A000500EC0E009C08A3D9C4529F48AE491E0D0
:1015B0000E94500E01C0C1E08C2FCF9108950C9471
:1015C000E413CF93DF93CDB7DEB72C970FB6F89423
:1015D000DEBF0FBECDBFCE01019629E0FC01119206
:1015E0002A95E9F71A8621E02B8722E02C872AED3D
:1015F0002A8327E1298324EB2B8343E0BE01665F26
:101600007F4F0E94F5162C960FB6F894DEBF0FBEE2
:10161000CDBFDF91CF9108950E947117482F60913F
:10162000B7017091B8018091B9019091BA010C9401
:10163000E10A482F6091B7017091B8018091B9011A
:101640009091BA010C94E10ACF92DF92EF92FF924F
:101650006B017C010E947117482FC701B6010E94DF
:10166000E10AC701B601FF90EF90DF90CF90089597
:1016700081E008950E94701D2FEF84E39CE02150CB
:1016800080409040E1F700C000000C9460250F936B
:101690001F93CF93DF938C01FC01C081D181CE01D8
:1016A0000E946B22BE010E945D0EEC01B8010E94F7
:1016B000C10A882309F495C2B801CE010E94BE1068
:1016C000882309F48EC2C93CFCE5DF0741F4F80128
:1016D0008281882309F485C20E94781482C2CA3CA0
:1016E0008CE5D80708F03AC1C13C9CE5D90761F404
:1016F000F8018281882309F474C20E941E23827239
:10170000F1F00E94D8136DC2C23CECE5DE07D0F0C8
:10171000F8018281C53CFCE5DF0709F4F4C008F05C
:1017200004C1C33CECE5DE0709F4F3C008F0F7C0E0
:10173000882309F456C20E941E23827211F30E946C
:10174000D5134FC2C531FCE5DF0708F0A7C0C23092
:101750008CE5D80708F478C0F8018281882309F461
:101760007FC00E94AC23811102C00E948B230E9483
:10177000C92390E090932C0280932B02FE01E3504A
:10178000FC45E231F10520F4EA5AFF4F0C94D836BB
:1017900080912B02816003C080912B028260809334
:1017A0002B024BC080912B028460F9CF80912B02D9
:1017B00013C080912B028061F2CF80912B02806256
:1017C000EECF80912B028064EACF80912B0280685B
:1017D000E6CF80912B0284608860E1CF80912B025C
:1017E0008E7FDDCF80912B028D7FD9CF80912B0210
:1017F0008B7FD5CF80912B0213C080912B028F7EDF
:10180000CECF80912B028F7DCACF80912B028F7B10
:10181000C6CF80912B028F77C2CF80912B028B7F16
:10182000877FBDCF90912B0297FB882780F921E01D
:10183000822780FB97F990932B0280912B020E94C4
:10184000CD230E94701DCDC1C1159CE5D90779F04B
:10185000C130DC45A1F081E080934D0180934E01C1
:10186000C801DF91CF911F910F910C94380BF801B3
:101870008281882309F4B5C10E943A0BB2C1F801F4
:101880008281882309F4ADC18091E4018160809355
:10189000E40184ED92E00E941B0AA3C1C531FCE57E
:1018A000DF0729F50E941E23382FF801228180913D
:1018B000000190910101222371F03A7A21E009F4AC
:1018C00020E020934801222311F065E301C069E282
:1018D0000E945B2409C020914801222311F065E396
:1018E00001C069E20E9466240E94EB227AC1C03CDA
:1018F000DC4509F0B0CFF8018281882309F471C179
:101900000E94EB146EC1882309F46BC10E948B16F0
:1019100068C1882309F465C10E94531662C18823F7
:1019200009F45FC10E946C165CC1C73C9CE5D907F5
:1019300031F4882309F455C10E94C01652C1C83C35
:10194000DC4530F4882309F44CC10E94A61649C135
:10195000882309F446C10E94DB1643C1C03DFCE563
:10196000DF07C1F4F8018281882309F43AC10E949B
:101970009913653171058105910540F00E94991315
:10198000673171058105910508F4D9CE85E10E9482
:10199000D21327C1C13D8CE5D80708F07AC0CC3CF2
:1019A0009CE5D907B1F4F8018281882309F419C1B3
:1019B0000E949913623071058105910540F00E94E3
:1019C0009913653071058105910508F4B8CE82E060
:1019D000DECFCD3CECE5DE07B8F4CA3CFCE5DF0722
:1019E00041F4F8018281882309F4FBC00E948D1420
:1019F000F8C0CB3CDC4509F02ECFF801828188236A
:101A000009F4EFC081E0C3CFF8018281CE3CFCE550
:101A1000DF07A1F4882309F4E4C00E949913693018
:101A200071058105910540F00E9499136E30710592
:101A30008105910508F483CE89E0A9CFCF3CDC4530
:101A4000A0F4882309F4CDC00E9499136630710573
:101A50008105910540F00E94991368307105810558
:101A6000910508F46CCE86E092CF882309F4B9C0C2
:101A70000E9499136F3071058105910540F00E9415
:101A80009913643171058105910508F458CE8FE0F2
:101A90007ECFC43DECE5DE0739F5F801828188236D
:101AA00061F010924E010E94F92490934C018093B2
:101AB0004B0180E20E94901A94C080914E018111E6
:101AC0000FC080914B0190914C010E9411258F3ADB
:101AD000910530F487E20E94201987E20E942F1AB4
:101AE00080E20E94971A7DC0C53DFCE5DF0708F043
:101AF00043C0F8018281C23DFCE5DF07A1F48823E1
:101B000009F46FC00E94991369317105810591052F
:101B100040F00E949913623271058105910508F425
:101B20000ECE89E134CFC33DDC4528F4882309F487
:101B300058C088E12CCF882351F010924D010E94AB
:101B4000F92490934A018093490182E0B3CF8091B8
:101B50004D0181110FC08091490190914A010E946D
:101B600011258F3A910530F486E20E94201986E211
:101B70000E942F1A82E0B5CFC83DECE5DE0731F4B4
:101B8000F8018281882369F180E009C0C93DFCE544
:101B9000DF0741F4F8018281882319F182E00E9475
:101BA000E9311FC0C53DDC4509F055CEF801828101
:101BB000811177CF80914E01811192CF80914B019D
:101BC00090914C010E9411258F3A910508F088CF21
:101BD00080E20E94971A88E20E94201988E20E94FF
:101BE0002F1A80E0DF91CF911F910F910895CF932D
:101BF000282F30E0F901EB51FD4FC491F901EB5969
:101C0000FC4F2491222359F081EE0E9420198C2F41
:101C10000E9420198C2F0E942F1A81EE04C08C2F55
:101C20000E9420198C2FCF910C942F1A0F931F9381
:101C3000CF93DF93EC01062FFE018491882359F1A5
:101C40009E012F5F3F4F813041F4E901F90114916A
:101C5000812F0E942019812F0DC0823031F4E901BB
:101C6000F90184910E9420190AC0833031F4E901FE
:101C7000F90184910E942F1A02C00E94F70D21964B
:101C8000802F8823C9F2EFE9FFE03197F1F700C018
:101C900000008150F6CFDF91CF911F910F910895F1
:101CA00060E00C94160E0C94BD0A0C94BF0A0C94C0
:101CB000C30A80E090E0089508959CE0799FF001C8
:101CC000112490E3899FE00DF11D1124E60FF11D11
:101CD000EE0FFF1FEC5AFE4F859194910895880FE7
:101CE000991F8B519C4FFC01859194910895CF933E
:101CF000DF930E945D0E0E941E10EC01811520E50D
:101D0000920708F040C0811530E4930708F01BC12A
:101D1000883E910508F5803E910508F08BC1883A10
:101D2000910578F4853A910508F09DC081309105C0
:101D300009F480C108F437C18430910508F07AC1F4
:101D400032C18D3B910508F499C0803C910508F49F
:101D50002AC1805C9109E9C0C11580E2D80758F416
:101D6000C11591E0D90708F065C1C03FD10508F45D
:101D70001AC1D0655FC1C11520E3D20708F0D9C0F0
:101D8000CE019F70D2C0811535E5930708F043C09E
:101D9000C11584E5D80708F0EDC0C11592E5D90753
:101DA00008F5C11521E5D20708F0D0C02C2F23700B
:101DB00081E090E002C0880F991F2A95E2F79C68A5
:101DC0009E01E4E036952795EA95E1F72370922B82
:101DD000CF70C695C69530E2C39FE0011124C82B91
:101DE000D92B28C18C2F869586959E012370332789
:101DF000C115D34508F0AFC090E2899FE0011124DE
:101E000081E090E002C0880F991F2A95E2F7C82B65
:101E1000D92BDC680FC1811529E5920780F4811563
:101E200038E5930708F0ABC0C11586E5D80708F080
:101E3000BAC0CF71DD27DC2FCC27D062FBC0C11523
:101E40009AE5D90708F4A0C0CE01905681159042BA
:101E500008F0A9C08D2F8F710E949A10DD27D062E3
:101E60008F71D82BE7C0853A910509F49FC0863A57
:101E7000910509F49EC0C3E8D0E4DCC0883A91051E
:101E800009F49AC0893A910509F499C08A3A9105F2
:101E900009F498C08B3A910509F497C08C3A9105E2
:101EA00009F496C08B3B910509F495C08C3B9105D4
:101EB00009F494C08D3A910509F493C0803B9105D3
:101EC00009F492C08E3A910509F491C08F3A9105B8
:101ED00009F490C0813B910509F48FC0823B9105C4
:101EE00009F48EC0833B910509F48DC0843B9105B4
:101EF00009F48CC0853B910509F48BC0863B9105A4
:101F000009F48AC0873B910509F489C0883B910593
:101F100009F488C0893B910509F487C08A3B910583
:101F200009F086C0CAE2D6E485C00E946F0EEC01BB
:101F300081C0CE019927D3FF03C0EC01D86C7AC0D1
:101F4000EC01D06C77C0DF70D06A74C0DC2FCC2776
:101F5000C16FD06A6FC090E2899FE001112481E0D7
:101F600090E002C0880F991F2A95E2F7C82BD92B61
:101F7000DA6860C0DC2FCC27C46FD06A5BC0D82F72
:101F8000CC27C06FD06A56C08C2F8F70806E90E0C7
:101F9000906A34E0D695C7953A95E1F7CF709C01E9
:101FA0003C2BE90147C0C0E0D0E044C0C1E8D0E428
:101FB00041C0C2E8D0E43EC0C2EED4E43BC0C9EEAA
:101FC000D4E438C0CAEED4E435C0C5EBD4E432C0A2
:101FD000C6EBD4E42FC0C3EBD4E42CC0C4EBD4E4F0
:101FE00029C0C7EBD4E426C0CCECD4E423C0CDECAC
:101FF000D4E420C0C3E8D5E41DC0CAE8D5E41AC0C3
:10200000C2E9D5E417C0C4E9D5E414C0C1E2D6E4FE
:1020100011C0C3E2D6E40EC0C4E2D6E40BC0C5E2F0
:10202000D6E408C0C6E2D6E405C0C7E2D6E402C0E2
:10203000C0E0D4E4CE01DF91CF91089582389105BC
:1020400049F1B0F48133910509F459C048F489325B
:10205000910509F44FC08A32910509F455C00895DD
:102060008533910509F441C08933910599F00895AC
:10207000833E910531F138F4803E910591F0823E26
:102080009105A9F00895863E910501F1873E9105DD
:1020900039F1089520912B0220FD3BC021FD39C06C
:1020A000089580912B0280FF34C089E341C0809164
:1020B0002B0282FF32C080912B0284FF2CC080E073
:1020C00037C080912B0282FD28C0F5CF80912B0272
:1020D00083FF25C080912B0284FDF1CF87EE28C0BD
:1020E00080912B0283FD1BC0F5CF80912B0285FFD1
:1020F00018C019C080912B0285FF15C012C08091B5
:102100002B0286FF12C013C080912B0286FF0FC0E6
:102110000CC080EE0DC083EE0BC082EE09C086EECF
:1021200007C085E305C089E203C081E301C08AE2FC
:1021300090E0089590912B0292FF0DC0282F2871F6
:10214000283019F4877F846006C0282F247124303A
:1021500011F48B7F886093FF0DC0282F28712831E0
:1021600019F4877E846106C0282F2471243111F46C
:102170008B7E886194FD877E08950895CF93DF93C9
:10218000EC01FB018281811102C081E040C080919D
:102190005C01811125C0C631DC45B9F70E94BD1034
:1021A00081E080935C010E94F92490935B0180930D
:1021B0005A0110924F011092510110925001109249
:1021C0005301109252011092550110925401109235
:1021D000570110925601109259011092580116C0E1
:1021E00080915A0190915B010E9411258C3291409F
:1021F00060F680914F01E82FF0E0EE0FFF1FE05BEB
:10220000FE4FD183C0838F5F80934F0180E0DF91C9
:10221000CF910895089585B7806885BF85B7806898
:1022200085BFAFE1B1E021E030E08D91E82FE2958C
:10223000EF70F0E041A18F70B90102C0660F771F07
:102240008A95E2F7CB01962F9095492341A392A15D
:10225000982B92A371E0A332B70739F7A3E1B1E05D
:1022600021E030E08D91E82FE295EF70F0E041A1A0
:102270008F70B90102C0660F771F8A95E2F7CB0114
:10228000962F9095492341A392A1982B92A371E098
:10229000AF31B70739F710926601109265011092BD
:1022A0005E0110925D011092680110926701109218
:1022B000600110925F0110926A0110926901109200
:1022C00062011092610110926C0110926B011092E8
:1022D0006401109263010C94530E4F925F927F92AF
:1022E0008F929F92AF92BF92CF92DF92EF92FF9226
:1022F0000F931F93CF93DF930FE111E0CDE5D1E072
:10230000EE24E394F12C99249394BE01A880B98023
:1023100019821882D8012D918D01E22FE295EF707C
:10232000F0E081A12F70A70102C0440F551F2A952C
:10233000E2F79A01842B81A382A1842E80948821C4
:1023400082A350EA5A95F1F743E1442E41E0542E1E
:1023500080E090E0D2014D912D01C42EC2943FE067
:10236000C322D12CD60190967C90C880D9804F7022
:10237000D70102C0AA0FBB1F4A95E2F77A2241F4A7
:10238000A701082E02C0440F551F0A94E2F702C0AD
:1023900040E050E04C295D295983488301968C30F8
:1023A0009105C1F681A1882181A382A1822B82A3FC
:1023B0002296FB0180819181A816B90641F0909286
:1023C0006D010E94F92490936F0180936E01F1E0FA
:1023D00003321F0709F099CF80916D01882351F1D5
:1023E00080916E0190916F010E941125069710F166
:1023F00080915D0190915E019093660180936501EB
:1024000080915F01909160019093680180936701D2
:10241000809161019091620190936A0180936901BA
:10242000809163019091640190936C0180936B01A2
:1024300010926D010E94550E81E0DF91CF911F91A6
:102440000F91FF90EF90DF90CF90BF90AF909F9053
:102450008F907F905F904F900895E82FF0E0EE0FFF
:10246000FF1FEB59FE4F808191810895CF92DF923B
:10247000EF92FF920F931F93CF93DF9385EF93E03B
:102480000E941B0AB5E6EB2EB1E0FB2EC0E0D0E0C7
:1024900010EFC12E13E0D12E07EE13E0DF93CF93A0
:1024A000DF92CF920E94B40A8DEE93E00E941B0A45
:1024B000F701819191917F010E9471239F938F93E6
:1024C0001F930F930E94B40A85EE93E00E941B0AAB
:1024D00021968DB79EB708960FB6F8949EBF0FBE93
:1024E0008DBFC430D105D1F6DF91CF911F910F91EF
:1024F000FF90EF90DF90CF900895DF92EF92FF92E0
:102500000F931F93CF93DF93662309F44AC0E42F00
:10251000F0E0AFEFB0E0A61BB109BF01A69FE0015C
:10252000A79FD00DB69FD00D1124FD2FDD2E7B016E
:10253000ED1AF1080CE310E0B8010E94B036EB018F
:10254000BC01E69EC001E79E900DF69E900D112401
:10255000B8010E94B036C230D105B1F040F42097E6
:1025600079F0219709F58F2FD42E461B20C0C43057
:10257000D10599F068F02597B9F4842F861B17C010
:102580008F2FD62EDF0E13C0862F8F0FD42E03C0B1
:10259000D42ED61A842F4F2F0AC0842F462F4F0FC8
:1025A00006C0842FD42E03C080E0D12C40E0E42F5D
:1025B000F0E0ED5CF84F4491ED2DF0E0ED5CF84F6C
:1025C0009491E82FF0E0ED5CF84FE491D901119679
:1025D0004C9311979C931296EC93DF91CF911F919E
:1025E0000F91FF90EF90DF90089588E090E00C94B9
:1025F000E636AB01BC0188E090E00C940437E7E1DB
:10260000F2E083E08083109218028FEF809319022A
:1026100080931A0210921B026081718182819381E2
:102620000C94F9128091E40180FF08C082E197E0E8
:102630009F938F930E94B40A0F900F908091E401B2
:1026400080FF0FC08091170281701F928F9385EFDA
:1026500096E09F938F930E94B40A0F900F900F9073
:102660000F908091E40180FF10C080911702869541
:102670008F731F928F938AED96E09F938F930E94A2
:10268000B40A0F900F900F900F908091E40180FF9B
:1026900019C090911702991F9927991F209118022C
:1026A000822F880F892B27FB222720F92F938F93C6
:1026B00080EC96E09F938F930E94B40A0F900F9046
:1026C0000F900F908091E40180FF0EC0809119025D
:1026D0001F928F9386EA96E09F938F930E94B40A8D
:1026E0000F900F900F900F908091E40180FF0EC02B
:1026F00080911A021F928F938CE896E09F938F939C
:102700000E94B40A0F900F900F900F908091E401F7
:1027100080FF0EC080911B021F928F9380E796E08E
:102720009F938F930E94B40A0F900F900F900F9079
:1027300008956091170260FF06C066956F7370E0A0
:1027400080E090E0089560E070E0CB010895809112
:10275000170280FF26C0817882608093170266236B
:1027600099F060911702709118028091190290916E
:102770001A020E94F9128091170286958F731F9298
:102780008F9386EB95E005C01F9281E08F9388E9D7
:1027900095E09F938F930E94B40A0F900F900F9033
:1027A0000F90089561E00C94A71381E00C94D2136C
:1027B0008091170286958F73815009F481E00C9403
:1027C000D21360E00C94A7138091E40181608093A0
:1027D000E40189E596E09F938F930E94B40A80916B
:1027E000E4010F900F9080FF08C083E496E09F9370
:1027F0008F930E94B40A0F900F900E94AC23811116
:1028000010C08091E40180FF08C08BE196E09F93A7
:102810008F930E94B40A0F900F900E948B230E9406
:10282000FF120E94F51260931702709318028093B2
:10283000190290931A026E77C1F48091E40180FF2F
:1028400008C082ED95E09F938F930E94B40A0F9089
:102850000F900E94FF120E94F5126093170270936E
:1028600018028093190290931A020E941213809109
:10287000170280FF06C086958F730E94E1130C94A7
:102880000C0B0895CF93DF93C7E1D2E0888181607C
:1028900088831F9281E08F938AE295E09F938F93C4
:1028A0000E94B40A0F900F900F900F908881869528
:1028B0008F73DF91CF910C94D213CF93DF93C7E145
:1028C000D2E08881816088831F9281E08F9381EFBD
:1028D00094E09F938F930E94B40A0F900F900F90F3
:1028E0000F90888186958F73DF91CF910C94E113BF
:1028F00080911B0290E001968430910514F083E0F2
:1029000090E080931B0260911702709118028091F1
:10291000190290911A020C94F91280911B0290E016
:10292000019797FF02C080E090E08430910514F099
:1029300083E090E080931B0260911702709118026F
:102940008091190290911A020C94F9128091170249
:1029500080FF06C063E070E08CE192E00C946917A0
:1029600010921D0210921C0210921E021092200260
:1029700010921F0210922102109223021092220242
:1029800010922402E7CFCF93DF93C7E1D2E0888192
:102990008E7F8883688179818A819B810E94F91268
:1029A000888181701F928F9389EB94E09F938F931E
:1029B0000E94B40A2FEF80E792E0215080409040BF
:1029C000E1F700C000000F900F900F900F90DF9183
:1029D000CF910C94A61480911702809581701F925C
:1029E0008F9381E695E09F938F930E94B40A809124
:1029F00017020F900F900F900F9080FD0C94C3144E
:102A00000C944214E7E1F2E080818E7F80831F9274
:102A10001F928FE794E09F938F930E94B40A2FEF49
:102A200080E792E0215080409040E1F700C0000034
:102A30000F900F900F900F900C94A6149091170286
:102A400090FF14C080931D0260931C0240931E02ED
:102A50008093200260931F024093210280932302FF
:102A600060932202409324020C94A61408952F929E
:102A70003F924F925F926F927F928F929F92AF920E
:102A8000BF92CF92DF92EF92FF920F931F93CF935B
:102A9000DF93CDB7DEB727970FB6F894DEBF0FBE32
:102AA000CDBF8C01262E342E2D838091170280FFFE
:102AB000DEC0982F9E77923061F49E012F5F3F4FCA
:102AC000C8010E947D124B8169818A810E941E1576
:102AD00081C0E82FE695EF739EE39E0F9F739430BD
:102AE00018F430901A0276C09AE39E0F9F739930C3
:102AF00068F4881F8827881F90911802292F220FB9
:102B0000022F082B97FB112710F964C087E28E0F64
:102B10008F738A3008F05EC0F0E07997E0FF03C061
:102B20002FEF2C8302C031E03C83EE7FE75DF84F4E
:102B3000859094908C81682E772467FC7094C401F2
:102B400063E070E00E94B036669E2001679E500CE4
:102B5000769E500C1124580198E9A91A9EEFB90AE3
:102B60008CE1C82E82E0D82EE12CF12CC50168E65C
:102B700071E00E94B0362091E40120FF18C09F92BE
:102B80008F927F92AC81AF939F938F93FF92EF923E
:102B9000A8E5B4E0BF93AF938E839F830E94B40AED
:102BA0000FB6F894DEBF0FBECDBF9F818E81960118
:102BB000432D622D0E947D12BFEFEB1AFB0AA40C7D
:102BC000B51C23E0C20ED11C33E0E316F10471F60C
:102BD0000E94A6148091170200FB87F980931702C8
:102BE000809118028078902F9695892B10FB87F999
:102BF000809318022092190230921A028D81882344
:102C000021F1609117027091180280911902909140
:102C10001A020E94F91280911A021F928F938091DA
:102C200019021F928F9390911702991F9927991F4C
:102C300020911802822F880F892B27FB222720F949
:102C40002F938F9383E394E009C01F923F921F92CA
:102C50002F9211701F930F938CE094E09F938F93AA
:102C60000E94B40A0FB6F894DEBF0FBECDBF279600
:102C70000FB6F894DEBF0FBECDBFDF91CF911F918D
:102C80000F91FF90EF90DF90CF90BF90AF909F900B
:102C90008F907F906F905F904F903F902F9008950E
:102CA00021E00C94371520911702221F2227221FA2
:102CB00030911802432F440F842F822B37FB992722
:102CC00090F90A9668E671E00E94C43640911A02B3
:102CD000609119020C94501620911702221F22278E
:102CE000221F30911802432F440F842F822B37FB71
:102CF000992790F98A3091051CF4825A9E4F01C0A1
:102D00000A9768E671E00E94C43640911A02609109
:102D100019020C94501660911902862F90E08F3E94
:102D2000910514F46F5E01C06FEF80911702881F48
:102D30008827881F90911802292F220F97FB992727
:102D400090F940911A02822B0C945016609119024E
:102D5000862F90E0419714F0615101C060E08091AE
:102D60001702881F8827881F90911802292F220F89
:102D700097FB992790F940911A02822B0C945016D8
:102D800040911A02842F90E08F3E910514F44F5E1B
:102D900001C04FEF80911702881F8827881F9091EC
:102DA0001802292F220F97FB992790F96091190299
:102DB000822B0C94501640911A02842F90E0419778
:102DC00014F0415101C040E080911702881F88270C
:102DD000881F90911802292F220F97FB992790F9AD
:102DE00060911902822B0C945016CF93DF9320919F
:102DF000170220FF38C09C01562FFB012D5F3F4F6B
:102E00008E2F851B841758F5EF01D90112976C910D
:102E1000808190E0DC01AA0FBB1FA80FB91FA45E40
:102E2000BD4F11966C93D90113976C91819190E0ED
:102E3000DC01AA0FBB1FA80FB91FA45EBD4F6C9386
:102E4000D90111976C91888190E0DC01AA0FBB1F1A
:102E5000A80FB91FA45EBD4F12966C93CFCFDF9120
:102E6000CF910C94A614DF91CF9108953BB1242FFC
:102E7000209523233BB1342B4FB7F894FC01680F06
:102E8000791FE617F70789F0819198E03BB90000B8
:102E900000C087FF2BB9880F000000C000C000C031
:102EA0002BB900C09A9591F7ECCF4FBF08952AB186
:102EB000242B2AB99B01220F331F260F371FB9017C
:102EC0000E94361787EC90E00197F1F700C00000F0
:102ED000089541E00C945717909375018093740105
:102EE0000895E0917401F0917501309721F00190FF
:102EF000F081E02D099480E00895FF920F931F93D5
:102F0000CF93DF938C01E0917401F09175013097BC
:102F100099F10280F381E02D09958091E40182FF0F
:102F20002BC080FF04C08BE398E00E941B0AE801DD
:102F300080E2F82E05E318E08091E40180FF0BC0E9
:102F400088811F928F931F930F930E94B40A0F9052
:102F50000F900F900F90FA942196F110EDCF809181
:102F6000E40180FF09C083E398E0DF91CF911F91D6
:102F70000F91FF900C941B0ADF91CF911F910F913D
:102F8000FF900895E0917401F0917501309721F060
:102F90000480F581E02D099408952091720130910B
:102FA00073018217930771F09093730180937201FC
:102FB000E0917401F0917501309721F00680F7815E
:102FC000E02D0994089520917001309171018217CC
:102FD000930771F09093710180937001E0917401F7
:102FE000F0917501309721F00084F185E02D09946E
:102FF000089508950C94F91781E008950E94F02433
:103000000E940B110E94D0250C94E413CF93C82F7B
:103010008091E40182FF1EC080FF04C084E598E037
:103020000E941B0A8091E40180FF0CC01F92CF9385
:103030002FE438E03F932F930E94B40A0F900F9033
:103040000F900F908091E40180FF04C08DE498E020
:103050000E941B0A8C2FCF910C94570E5F926F9297
:103060007F928F929F92AF92BF92CF92DF92EF9218
:10307000FF920F931F93CF93DF93CDB7DEB72A97BD
:103080000FB6F894DEBF0FBECDBF0E946D110E9437
:10309000FC17811111C08FEF89838A831B820E94E4
:1030A000F9248160782F9D838C8349815A816B81BB
:1030B0008D810E94EC1857C097E7C92E91E0D92E58
:1030C00000E010E0AA24A394B12C502E802F0E947F
:1030D0002D123C01F601E190F1906F01E826F926EE
:1030E000E114F10431F40F5F1F4F0430110569F74B
:1030F000D2CF8091E40181FD0E94361220E030E0C1
:103100004501022E02C0880C991C0A94E2F7C40102
:103110008E219F21892B09F12E835F8268207920DF
:1031200081E0672809F480E088870E94F9248160A3
:10313000782F9A8789874E815F8168858A850E946A
:10314000EC18F801EE0FFF1FE958FE4F80819181C6
:10315000882599259183808306C02F5F3F4F2C30AF
:10316000310571F6C0CF0E94FA28109176010E94B5
:1031700071171817D9F00E947117809376012A965B
:103180000FB6F894DEBF0FBECDBFDF91CF911F9178
:103190000F91FF90EF90DF90CF90BF90AF909F90F6
:1031A0008F907F906F905F900C9406182A960FB6C0
:1031B000F894DEBF0FBECDBFDF91CF911F910F916D
:1031C000FF90EF90DF90CF90BF90AF909F908F9047
:1031D0007F906F905F900895CF93DF93CDB7DEB768
:1031E0002B970FB6F894DEBF0FBECDBF4F83588725
:1031F00069877A878B87DE01119686E0FD0111923F
:103200008A95E9F785E0FE01379601900D928A953F
:10321000E1F749815A816B817C818D819E810E9479
:103220004A202B960FB6F894DEBF0FBECDBFDF91BC
:10323000CF910895FC01808191810E94AB22089575
:10324000CF93DF931F92CDB7DEB7682F882309F4A1
:1032500002C18238C1F40E94711781FDFCC069E38C
:1032600080910001909101010E945B240E94EB2259
:103270002FEF81EE94E0215080409040E1F700C0B4
:10328000000069E319C0833811F50E94711780FDB1
:10329000E2C063E580910001909101010E945B24EE
:1032A0000E94EB22EFEFF1EE24E0E150F0402040ED
:1032B000E1F700C0000063E58091000190910101F9
:1032C0000E9466240F90DF91CF910C94EB228438FA
:1032D000C1F40E94711782FDBEC067E480910001B5
:1032E000909101010E945B240E94EB228FEF91EEEE
:1032F000E4E081509040E040E1F700C0000067E466
:10330000DBCF8CEF860F813A70F4862F69830E94A1
:103310006C2D698181119FC0809100019091010104
:103320000E945B24CFCF80E2860F883048F467701C
:1033300081E001C0880F6A95EAF70E942123C2CF7D
:103340008BE5860F833088F4653A29F0663A31F4CC
:1033500082E890E005C081E890E002C083E890E058
:103360000F90DF91CF910C94CD1788E5860F8531B2
:1033700008F071C0683A61F1693A69F16A3A71F12D
:103380006B3A79F16C3A81F16B3B89F16C3B91F1CD
:103390006D3A99F1603BA1F16E3AA9F16F3AB1F142
:1033A000613BB9F1623BC1F1633BC9F1643BD1F1CF
:1033B000653BD9F1663BE1F1673BE9F1683BF1F12F
:1033C000693BF9F16A3B09F03FC08AE292E03EC0F6
:1033D00082EE90E03BC089EE90E038C08AEE90E04B
:1033E00035C085EB90E032C086EB90E02FC083EBD8
:1033F00090E02CC084EB90E029C087EB90E026C0E1
:103400008CEC90E023C08DEC90E020C083E891E04C
:103410001DC08AE891E01AC082E991E017C084E9F2
:1034200091E014C081E292E011C083E292E00EC00C
:1034300084E292E00BC085E292E008C086E292E06E
:1034400005C087E292E002C080E090E00F90DF913B
:10345000CF910C94E3170F90DF91CF9108958823BB
:1034600009F45DC0823879F40E94711781FF57C05A
:1034700069E380910001909101010E945B240E9408
:10348000EB2269E310C08338B1F40E94711780FF0A
:1034900046C063E580910001909101010E945B2488
:1034A0000E94EB2263E580910001909101010E944E
:1034B00066240C94EB22843879F40E94711782FF01
:1034C0002EC067E480910001909101010E945B246D
:1034D0000E94EB2267E4E7CF9CEF980F913A10F43B
:1034E000682FE1CF90E2980F983050F4877091E008
:1034F00001C0990F8A95EAF7892F0E942723D9CF17
:103500009BE5980F933020F480E090E00C94CD1769
:10351000885A853120F480E090E00C94E3170895F8
:10352000882321F00E9421230C94EB220895882304
:1035300021F00E9427230C94EB2208958F929F92F2
:10354000BF92CF92DF92EF92FF920F931F93CF9390
:10355000DF9300D0CDB7DEB74C01472FFC01C5800B
:10356000C2949FE0C922D280DD2031F079836A8342
:103570000E943E236A81498149836A830E94E42232
:1035800049816A81882389F0DD2079F080E2860F05
:10359000883058F082E00E94CD220E94E422BB24B1
:1035A000B394B82649816A8101C0B12CE42EE2941B
:1035B0008FE0E822F12CF701E859FF4F0C94D83640
:1035C000842F807F142F1F70882311F01295107F95
:1035D000DD20C1F0112309F4E0C180E2860F8830BC
:1035E00010F0611105C0812F6A830E94212304C05D
:1035F000812F6A830E9431236A816A830E94EB22B1
:103600006A81CBC1862F6A830E942F1A6A81112397
:1036100009F4E4C180E2860F883010F0611104C023
:10362000812F0E94272303C0812F0E9437230E94ED
:10363000EB22D4C1842F807F142F1F70803211F0B1
:103640001295107F662319F06130D9F026C0DD2075
:1036500079F0CC2049F0F1E0CF1206C00E94572348
:10366000812B0E945123BAC10E945723812B4AC14A
:10367000CC2021F021E0C21609F4B0C10E945423ED
:1036800046C1DD2029F085E08C1508F4A7C139C1B9
:1036900094E09C1508F4A2C13AC1DD2051F0CC2081
:1036A00009F42FC1F401858180FF77C18F70858374
:1036B00028C1CC2009F42BC181C1242F2695269541
:1036C000237030E02115310521F02130310561F002
:1036D00085C1DD2021F0862F942F937002C080E0F9
:1036E00090E00E94CD178AC1DD2021F0862F942F13
:1036F000937002C080E090E00E94E3177FC1DD205C
:10370000F9F0653F51F0663F71F0643FA9F4809194
:1037100025029091260281600BC080912502909134
:103720002602826005C08091250290912602846065
:103730009093260280932502862F0E94802722C024
:10374000653F51F0663F91F0643FC9F480912502D6
:10375000909126028E7F05C08091250290912602CD
:103760008D7F909326028093250209C02091250227
:10377000309126022B7F3093260220932502862F3C
:103780000E94E8270E946D2839C1842F837009F0B8
:103790004EC0D1102FC1262F229526952770220FBB
:1037A000220F862F8F70C82ED12CE12CF12C022EE7
:1037B00004C0CC0CDD1CEE1CFF1C0A94D2F764FF85
:1037C00010C06FE070E080E090E004C0660F771FEB
:1037D000881F991F2A95D2F76095709580959095CE
:1037E00003C060E070E0CB01242F2695269523705E
:1037F00030E02230310569F02330310589F06C2941
:103800007D298E299F292130310571F00E9499214F
:10381000F1C06C297D298E299F290E94AB21EAC025
:103820000E949921C701B6010E948721E3C0DD20D3
:1038300019F0842F817001C08695882309F4DAC0BD
:10384000262F229526952770220F220F862F8F7004
:10385000C82ED12CE12CF12C022E04C0CC0CDD1C86
:10386000EE1CFF1C0A94D2F764FF10C06FE070E0FA
:1038700080E090E004C0660F771F881F991F2A958B
:10388000D2F7609570958095909503C060E070E0E8
:10389000CB01242F26952695237030E02230310568
:1038A00069F02330310589F06C297D298E299F2903
:1038B0002130310571F00E9446229CC06C297D297F
:1038C0008E299F290E94582295C00E944622C70136
:1038D000B6010E9434228EC0062F10E0F801E05E8F
:1038E000F109E531F10508F054C0E858FF4F0C9498
:1038F000D836162F1F70842F8F71DD2031F00E9473
:10390000DF21812F0E94901A69C00E94FA21812F25
:103910000E94971A63C0DD2049F0F4E0FC1508F41A
:103920005DC0842F8F710E94192258C025E02C158C
:1039300008F454C0F6CFDD2039F0842F8F710E9437
:10394000DF214CC0DD20C9F3842F8F710E94FA2142
:1039500045C0DD2029F0842F8F710E94D0213EC008
:103960000E94CB213BC0DD2051F0142F1F71812F0D
:103970000E94DF2163E0812F0E94C4222FC081E0DA
:103980000E94CD2281E08C1548F582E00E94CD2274
:1039900025C0DD2031F0CC2081F2862F0E94201935
:1039A0001DC0CC2089F2693349F49FEFE7EEF3E0C4
:1039B0009150E040F040E1F700C00000862F0E94E7
:1039C0002F1A0CC04F70C4010E94590E0E94F7209C
:1039D00015C04F70C4010E945C0E10C028E0E216B2
:1039E000F10441F05CF09AE0E91AF108E2E0EE1629
:1039F000F10420F40E9471170E94570EBB20F1F0D1
:103A00000E94C02280FD1AC0F40112820E94BA22D4
:103A10000E94DF21C4010E942C1D0E94BA220F9037
:103A20000F90DF91CF911F910F91FF90EF90DF905A
:103A3000CF90BF909F908F900C94FA210F900F9091
:103A4000DF91CF911F910F91FF90EF90DF90CF907A
:103A5000BF909F908F9008950F931F93CF93DF9304
:103A6000EC01288139818B819C81892B31F03F3F8A
:103A700011F080E003C02F3FE1F781E0811113C016
:103A8000CE010E94470B882371F0688179818A8179
:103A90000E94B6228C010E946A220E948421B801F1
:103AA000CE010E949E1ADF91CF911F910F91089530
:103AB0000E943E230E944E238091000190910101BB
:103AC0000E9471240E94EB220E9483290E946D288B
:103AD00080E090E00E94CD1780E090E00C94E31726
:103AE0000E942E230C94581D0E94AB22E92FE295D0
:103AF000EF70F0E03297EE30F105B8F4E357FF4F86
:103B00000C94D836803F59F018F4803E70F407C00A
:103B1000843F59F404C0803E10F0813F31F481E0CD
:103B2000089593FB882780F9089580E00895CF9346
:103B3000DF9300D000D01F92CDB7DEB70F900F906B
:103B40000F900F900F90DF91CF910895CF93DF9357
:103B500000D000D000D0CDB7DEB726960FB6F894CF
:103B6000DEBF0FBECDBFDF91CF9108951F93CF93DE
:103B7000DF93C0917F0116E080918001C81799F012
:103B8000D0E01C9FF0011D9FF00D1124EF57FE4F58
:103B90004081518162817381848195810E94A61D3B
:103BA0002196C770E9CFDF91CF911F910895409181
:103BB000B1015091B2016091B3017091B401809153
:103BC000B5019091B6010C94A61DCF938091B601DA
:103BD00082958F7009F05FC08091B301882309F44A
:103BE0005AC020917F01A09180016091B101709134
:103BF000B2018091B4019091B50131E06F3F09F0BD
:103C000030E0B32FC6E02A1709F445C0009721F031
:103C10007F3F21F44B2F03C041E001C040E030E082
:103C200040FD35C0C29FF001C39FF00D1124EF5736
:103C3000FE4F418174132BC04081641328C0428120
:103C4000411125C0438154814817590710F4415050
:103C50005109481B590B4F3A5105C8F48091B601E0
:103C60008F7080618093B60186E0829FF001839F10
:103C7000F00D1124EA57FE4F80818F7080618083A0
:103C800081EB91E00E942C1DCF910C94B61D2F5F0B
:103C90003F4F2770B8CFCF910895CF92DF92EF9228
:103CA000FF920F931F93CF93DF93CDB7DEB7629749
:103CB0000FB6F894DEBF0FBECDBF8C0185E0F801D2
:103CC000DE011D9601900D928A95E1F7D8014C9185
:103CD00011965C91119712966C9112971396ED9034
:103CE000FC9014977091B101E091B2012091B40160
:103CF0003091B5012115310531F0EF3F31F481E00C
:103D00007F3F19F403C081E001C080E0B82FB1709B
:103D1000CB2E80FD6BC1D090B301DD2009F4F5C03E
:103D2000F091B601E216F30638F0C701821B930B3F
:103D30008F3A910548F09DC0209530952E0D3F1D7E
:103D40002F3A310508F095C08F2F807F09F052C0BF
:103D5000E51314C0741312C0D62E61110FC0FF708A
:103D6000F061F093B6010E94D71D81EB91E00E94B3
:103D70002C1D8091B601F80185837CC1EF2831F0BC
:103D80005F3F31F481E04F3F19F403C081E001C08F
:103D900080E080FD03C081E0862701C080E0F82F2D
:103DA000F170FF2E80FF1CC080917F012091800167
:103DB00036E0821709F438C190E0389FF001399F4E
:103DC000F00D1124EF57FE4F7181571306C070811B
:103DD000471303C07281671303C001968770E9CF50
:103DE000D62E662309F446C18091B6018160809386
:103DF000B60155C0E51308C0741306C0611104C0B4
:103E0000D8011596FC93AEC04D875E878D859E8543
:103E10006A8B0E94741D6A89882329F1D62E662335
:103E200011F12091B601822F82958F7090E0029758
:103E30000CF462C08091B1019091B20198878F8398
:103E40001986FB86EA862C87CE01079653C0E517B4
:103E500041F14D875E878D859E856A8B0E94741D1A
:103E60006A89811130C0C8010E942C1DDD24D394C1
:103E700001C18F2F807F59F77E2DF98AE88A8989C1
:103E80000E94971D81EB91E00E942C1DE1EBF1E077
:103E900086E0DF011D928A95E9F70E94D71DD12C9B
:103EA000E9C07413D6CF6111D4CFD8011596FC9315
:103EB000C8010E942C1DE1EBF1E086E0DF011D92BC
:103EC0008A95E9F7D7C0D62E662369F22091B6010C
:103ED000822F82958F7090E0029774F08091B101EB
:103EE0009091B2019A8389831B82FD82EC822E839A
:103EF000CE0101960E942C1D86E0F801A1EBB1E0F5
:103F000001900D928A95E1F78AC0E216F30628F037
:103F1000C701821B930B9C0104C0209530952E0D88
:103F20003F1D2F3A310508F053C0D62E662309F401
:103F30009ACFE5132CC074132AC08091B60180FD7E
:103F40001DC0982F92959F70C9F0D80115968C933B
:103F500015979F3039F09F5F9295907F8F70892BD6
:103F600015968C93C8010E942C1D86E0F801A1EBE8
:103F7000B1E001900D928A95E1F753C086E0F80117
:103F8000A1EBB1E001900D928A95E1F773C04D87E6
:103F90005E878D859E850E94741D882381F096E042
:103FA000F801A1EBB1E001900D929A95E1F78A8BAF
:103FB0000E94E51D0E94D71D8A89D82E5BC0809182
:103FC000B60181608093B601C8010E942C1D52C0C9
:103FD0007E2DF98AE88A89890E94971DE1EBF1E03C
:103FE00086E0DF011D928A95E9F71BC0662309F47C
:103FF0003ACF4D875E878D859E850E94741DD82E91
:10400000882309F430CF86E0F801A1EBB1E00190FC
:104010000D928A95E1F781EB91E00E941A190E94B6
:10402000E51D0E94D71D26C04D875E878D859E8524
:104030000E94AB22292F22952F7030E022303105CB
:104040002CF49F7041F0811106C00CC02430310562
:104050002CF49F7049F4805E883020F0C8010E94E3
:104060002C1DCF2CDC2C06C0D80115969C91907F7E
:1040700091F7F8CF8D2D62960FB6F894DEBF0FBE84
:10408000CDBFDF91CF911F910F91FF90EF90DF9007
:10409000CF9008951F93CF93DF93CDB7DEB72C97C2
:1040A0000FB6F894DEBF0FBECDBF4F835887698728
:1040B0007A878B879C87CE0107960E944D1E8823A6
:1040C000C1F02F8138858A859B85892B31F03F3F50
:1040D00011F080E003C02F3FE1F781E0811147C07C
:1040E0004F81588569857A858B859C850E94A61DA0
:1040F0003EC086E0FE013796DE01119601900D92DA
:104100008A95E1F7FF81E8854A855B854115510570
:1041100031F0EF3F31F481E0FF3F19F403C081E05B
:1041200001C080E080FD23C02091800130E0C90102
:1041300001968770992760917F0170E08617970735
:10414000F1F1F983EA835D834C8396E0929FD0017D
:10415000939FB00D1124AF57BE4FFE0131960190D1
:104160000D929A95E1F7809380010E94B61D16E0AA
:1041700080917F0190918001891779F1189FC0018A
:1041800011248F579E4F0E944D1E882331F1E091DC
:104190007F011E9FF0011124EF57FE4F4081518196
:1041A00062817381848195810E94A61D80917F0127
:1041B00090E001968770992780937F01D9CF0E9464
:1041C000701D1092800110927F01E1EBF1E086E01A
:1041D000DF011D928A95E9F7CACF2C960FB6F894A5
:1041E000DEBF0FBECDBFDF91CF911F910895EF923B
:1041F000FF920F931F93CF93DF93FC01009709F475
:104200006FC0F12CEE24E394EF0121968491843762
:1042100040F4843008F055C0813081F0823021F1C3
:104220005FC0853709F447C0C0F19CE7980F90370D
:1042300008F056C08F770E942F1A45C08F010E5F7D
:104240001F4FFE01849190E2980F983050F48770D0
:10425000FE2D01C0FF0F8A95EAF78F2F0E944123A0
:1042600015C00E94201914C08F010E5F1F4FFE0160
:10427000849190E2980F983068F48770FE2D01C009
:10428000FF0F8A95EAF78F2F0E9447230E94EB22A7
:10429000E80119C00E942F1AFBCFCF010296FE0140
:1042A000C491CC2361F0EFE9FFE03197F1F700C052
:1042B0000000C150F6CFCF010296FE01F490EC0150
:1042C00002C00E9420198F2D882341F0EFE9FFE002
:1042D0003197F1F700C000008150F6CFFE0194CF76
:1042E000DF91CF911F910F91FF90EF900895089566
:1042F0000E9477216093BB017093BC018093BD0144
:104300009093BE010C94581D08950C9478210F933E
:104310001F930091BB011091BC012091BD01309110
:10432000BE01602B712B822B932B1F910F910C944C
:1043300078210F931F930091BB011091BC01209134
:10434000BD013091BE0160237123822393231F910D
:104350000F910C9478210F931F930091BB01109142
:10436000BC012091BD013091BE01602771278227D9
:1043700093271F910F910C9478210C94240B0E9489
:10438000BD216093B7017093B8018093B9019093F8
:10439000BA010C94581D60E070E0CB010C94BF2171
:1043A00041E050E060E070E004C0440F551F661F1C
:1043B000771F8A95D2F7CB01BA010C94BF2141E057
:1043C00050E060E070E004C0440F551F661F771F87
:1043D0008A95D2F78091B7019091B801A091B90167
:1043E000B091BA01482B592B6A2B7B2BCB01BA0118
:1043F0000C94BF2141E050E060E070E004C0440F45
:10440000551F661F771F8A95D2F740955095609586
:1044100070958091B7019091B801A091B901B091C8
:10442000BA01482359236A237B23CB01BA010C9498
:10443000BF2141E050E060E070E004C0440F551F30
:10444000661F771F8A95D2F78091B7019091B801C6
:10445000A091B901B091BA01482759276A277B2753
:10446000CB01BA010C94BF210F931F930091B701A8
:104470001091B8012091B9013091BA01602B712BD4
:10448000822B932B1F910F910C94BF210F931F939D
:104490000091B7011091B8012091B9013091BA0192
:1044A00060237123822393231F910F910C94BF21CA
:1044B0000F931F930091B7011091B8012091B9019A
:1044C0003091BA0160277127822793271F910F919E
:1044D0000C94BF210895CF92DF92EF92FF920F9339
:1044E0001F93CF93DF93EC01C090BB01D090BC0130
:1044F000E090BD01F090BE018091B7019091B801AC
:10450000A091B901B091BA01C82AD92AEA2AFB2A96
:104510000FE110E0B701A601002E04C07695679563
:10452000579547950A94D2F740FD05C001501109EF
:1045300088F780E007C0BE01802F0E94770E0197A8
:10454000A9F3802FDF91CF911F910F91FF90EF90F2
:10455000DF90CF900895CF93DF93EC010E946B2200
:10456000BE010E94770EDF91CF910895CB010E948A
:10457000AB2208958091BF01859585958595089515
:104580008091BF018770089598E0899F9001112460
:10459000622B6093BF010C94DF214091BF01809595
:1045A00084238093BF01982F977069F450E0282FDF
:1045B000332727FD30954217530729F085958595B8
:1045C00085950C94FA2108959091BF01977081E030
:1045D00009F480E00895E0910001F09101018091DB
:1045E000E3018083E0910001F091010180819091CD
:1045F000E201892B8083E0910001F091010180812B
:104600009091E101892B80839091C001992381F0E1
:10461000E0910001F09101018081892B80838091DC
:104620000001909101010E94D22381111092C001DA
:1046300080910001909101010C947D178091E3011C
:1046400008959091E301982B9093E301089580954C
:104650009091E30198239093E30108951092E30170
:1046600008959091E201982B9093E201089580952E
:104670009091E20198239093E20108951092E20153
:1046800008959091E101982B9093E1010895809510
:104690009091E10198239093E10108951092E10136
:1046A00008958093C00108951092C00108958091EB
:1046B000C001089590934701809346010895829523
:1046C000982F9C7C96959695837344E0849F9001E7
:1046D0001124922B892F8A7A86959575990F892BAB
:1046E00008951F93CF93DF931F92CDB7DEB79983C1
:1046F0000E945F23182F9981892F0E945F23212F09
:1047000030E0322F2227A901482BCA010F90DF91F8
:10471000CF911F9108956DEE7EEF80E090E00E94B2
:10472000103760E082E090E00E94F23660E083E0C3
:1047300090E00E94F23660E084E090E00E94F23661
:1047400060E085E090E00E94F23640E050E0BA017F
:1047500088E090E00C94043780E090E00E94EC3612
:1047600021E08D3E9E4F09F020E0822F089582E0E7
:1047700090E00C94DE36682F82E090E00C94F236E4
:1047800083E090E00C94DE36682F83E090E00C9498
:10479000F23684E090E00C94DE36682F84E090E0FE
:1047A0000C94F23620E030E040E0FC01E20FF31F11
:1047B000518151114F5F2F5F3F4F2F313105A9F7C5
:1047C000842F089520E030E04FEFFC01E20FF31F4B
:1047D0005281561799F04F3F19F4511101C0422FE1
:1047E0002F5F3F4F2E31310581F74F3F39F0FC01EC
:1047F000E40FF11D47FDFA9562830895089520E0C6
:1048000030E0FC01E20FF31F4281461301C0128227
:104810002F5F3F4F2E313105A1F70895262F2695A2
:10482000269526952F3178F4FC01E20FF11D677073
:1048300021E030E0062E01C0220F0A94EAF78181C0
:10484000822B818308958091E40180FF0CC01F9228
:104850006F9385E898E09F938F930E94B40A0F901E
:104860000F900F900F900895262F26952695269548
:104870002F3180F4FC01E20FF11D677021E030E080
:10488000062E01C0220F0A94EAF720958181282381
:10489000218308958091E40180FF0CC01F926F93E3
:1048A00087E698E09F938F930E94B40A0F900F9031
:1048B0000F900F90089520911201222329F020914A
:1048C0002B0227FD0C940E240C94E223209112015C
:1048D000222329F020912B0227FD0C9434240C94E0
:1048E000FF2320E030E0FC01E20FF31F11822F5F75
:1048F0003F4F2F313105B9F708958091310284304F
:1049000031F11092E50120E488E190E00FB6F894CF
:10491000A895809360000FBE2093600080E00E9405
:10492000570E0E94021583B7817F846083BF83B7CF
:10493000816083BF7894889583B78E7F83BF88E139
:104940000FB6F89480936000109260000FBE089537
:1049500008950895CF930E94A8240E946D110E948B
:10496000A924C0E08C2F0E942D12892B29F4CF5F3F
:10497000C430C1F780E001C081E0CF9108950E946A
:10498000701D0E9471170E94570E0C945D141F92A7
:104990000F920FB60F9211248F939F93AF93BF93F3
:1049A0008091E501811113C0809127029091280226
:1049B000A0912902B0912A024196A11DB11D8093B8
:1049C000270290932802A0932902B0932A02BF9154
:1049D000AF919F918F910F900FBE0F901F901895E0
:1049E00082E084BD93E095BD9AEF97BD80936E0001
:1049F00008952FB7F8948091270290912802A091F2
:104A00002902B0912A022FBF08952FB7F894609120
:104A10002702709128028091290290912A022FBFCB
:104A20000895CF92DF92EF92FF920F931F932FB7CB
:104A3000F8944091270250912802609129027091C8
:104A40002A022FBF6A017B01EE24FF248C0120E0A3
:104A500030E0C016D106E206F30610F441505109C9
:104A6000481B590BCA011F910F91FF90EF90DF90E7
:104A7000CF90089578941F920F920FB60F92112441
:104A80008F939F93AF93BF938091270290912802B9
:104A9000A0912902B0912A020196A11DB11D809317
:104AA000270290932802A0932902B0932A02BF9173
:104AB000AF919F918F910F900FBE0F901F901895FF
:104AC00081E08093E00080E28093D8001092C900DA
:104AD0008FE19EE40197F1F700C0000087E090EBC2
:104AE000DC0180933A0290933B02A0933C02B09386
:104AF0003D022CE088E190E00FB6F894A8958093F1
:104B000060000FBE20936000FFCFBF92CF92DF9274
:104B1000EF92FF920F931F93CF93DF93B12C01E09D
:104B200010E0E82EF12C8B2D0E942D126C01C0E0BC
:104B3000D0E098010C2E02C0220F331F0A94E2F736
:104B40002C213D21232B29F42196CC30D10589F746
:104B50000AC06C2F7B2D80E00E945D0EE816F906DE
:104B600099F781E005C0B39484E0B812DCCF80E00F
:104B7000DF91CF911F910F91FF90EF90DF90CF9039
:104B8000BF900895CF93C82F8CE20E94852588237B
:104B900021F08C2FCF910C94852580E0CF91089542
:104BA000CF930E94AC23811102C00E948B238AEA1A
:104BB00098E00E941B0AC5E6C15049F00E946D11A1
:104BC0008FE39CE90197F1F700C00000F5CF83EA7D
:104BD00098E00E941B0A89E20E94C22581110DC142
:104BE0008AE20E94C22581110E948B2385E00E94E7
:104BF000C22581110E9460250E94B7238093E401A1
:104C000087E00E94C225882399F18BE10E94C2258A
:104C1000882351F09091E40191FB882780F921E0ED
:104C2000822780FB91F922C08EE00E94C225882352
:104C300051F09091E40192FB882780F921E08227CE
:104C400080FB92F913C080E10E94C2259091E4019B
:104C5000882341F093FB882780F921E0822780FB9D
:104C600093F904C0892F809580FB90F99093E4011B
:104C70008091E4010E94BB230E94C92390E090939D
:104C80002C0280932B0280EE0E94C225882341F0E3
:104C900080912B02982F909590FB80F980932B02A6
:104CA00089E30E94C225882359F090912B0291FB41
:104CB000882780F921E0822780FB91F990932B02CD
:104CC00082EE0E94C225882359F090912B0292FB1C
:104CD000882780F921E0822780FB92F990932B02AC
:104CE00086EE0E94C225882359F090912B0293FBF7
:104CF000882780F921E0822780FB93F990932B028B
:104D000083EE0E94C225882359F090912B0294FBD8
:104D1000882780F921E0822780FB94F990932B0269
:104D200085E30E94C225882359F090912B0295FBC0
:104D3000882780F921E0822780FB95F990932B0248
:104D400081E30E94C225882359F090912B0296FBA3
:104D5000882780F921E0822780FB96F990932B0227
:104D600081E10E94C225882359F090912B0297FB84
:104D7000882780F921E0822780FB97F990932B0206
:104D800080912B020E94CD2387E20E94C225C82F6A
:104D90008EE10E94C2258111C2608FE10E94C2256E
:104DA0008111C46080E20E94C2258111C86081E245
:104DB0000E94C2258111C06182E20E94C225811138
:104DC000C06283E20E94C2258111C06484E20E9415
:104DD000C225882311F0C06802C0CC2329F08C2F93
:104DE0000E94C4236C2F03C00E94C023682F70E070
:104DF00080E090E0CF910C948521CF91089580912F
:104E0000E80180FF0BC06091050185E0689FB0015B
:104E1000112475956795759567952AC081FF09C01E
:104E20006091050185E0689FB00111247595679533
:104E30001FC082FF07C06091050185E0689FB00137
:104E4000112416C04091E9014423C9F06091040186
:104E5000461788F72091050185E0289F90011124CD
:104E6000429FC001439F900D112470E00E94C43600
:104E70006038710540F46115710539F002C065E0D4
:104E800070E0862F08958FE7089581E0089580915E
:104E9000E80180FF08C06091030170E07595679597
:104EA0007595679521C081FF06C06091030170E090
:104EB0007595679519C082FF04C06091030170E089
:104EC00010C08091E9018823C1F06091020186172A
:104ED000A0F790910301989FC001112470E00E94F7
:104EE000C4366038710528F46115710521F0862FEC
:104EF00008958FE7089581E0089561E070E0F4CFB0
:104F0000803F21F40E94FF26819504C0813F29F44F
:104F10000E94FF268093EC010895823F21F40E94B5
:104F2000FF26819504C0833F29F40E94FF268093C9
:104F3000EB010895893F19F40E94472705C08A3F75
:104F400031F40E94472781958093ED0108958B3FAE
:104F500021F40E944727819504C08C3F29F40E94C8
:104F600047278093EE010895843F21F48091EA0160
:104F7000816017C0853F21F48091EA01826011C0F1
:104F8000863F21F48091EA0184600BC0873F21F4C1
:104F90008091EA01886005C0883F31F48091EA0180
:104FA00080618093EA0108958D3F21F48091E801AA
:104FB00081600BC08E3F21F48091E801826005C0C2
:104FC0008F3F29F48091E80184608093E80108957F
:104FD000803F39F48091EC0187FF6CC01092EC01A6
:104FE00069C0813F29F48091EC011816BCF362C0BE
:104FF0009091EB01823F29F497FF5CC01092EB0186
:1050000059C0833F19F41916CCF354C0893F41F4B9
:105010008091ED0118160CF04DC01092ED014AC0C0
:105020008A3F29F48091ED0187FF44C0F6CF8B3F82
:1050300039F48091EE0187FF3DC01092EE013AC035
:105040008C3F29F48091EE011816BCF333C0843FE5
:1050500021F48091EA018E7F17C0853F21F4809171
:10506000EA018D7F11C0863F21F48091EA018B7F98
:105070000BC0873F21F48091EA01877F05C0883FFC
:1050800031F48091EA018F7E8093EA0113C08D3F55
:1050900021F48091E8018E7F0BC08E3F21F4809136
:1050A000E8018D7F05C08F3F29F48091E8018B7F57
:1050B0008093E8018091EB0181110EC08091EC0199
:1050C00081110AC08091ED01811106C08091EE012D
:1050D000811102C01092E90108958091E40183FFDB
:1050E0007EC086EE98E00E941B0A8091EA011F9222
:1050F0008F9381EE98E09F938F930E94B40A8FED77
:1051000098E00E941B0A2091EB01822F992787FDCE
:1051100090959F932F938CED98E09F938F930E948F
:10512000B40A8AED98E00E941B0A2091EC01822FBC
:10513000992787FD90959F932F9387ED98E09F93F4
:105140008F930E94B40A85ED98E00E941B0A20917B
:10515000ED01822F992787FD90959F932F9382EDE4
:1051600098E09F938F930E94B40A80ED98E00E948C
:105170001B0A2091EE01822F992787FD90959F931E
:105180002F938DEC98E09F938F930E94B40A8AEC42
:1051900098E00E941B0A8091E9011F928F9387EC8F
:1051A00098E09F938F930E94B40A85EC98E00E9448
:1051B0001B0A8091E8011F928F9382EC98E09F93E5
:1051C0008F930E94B40A8FEB98E00E941B0A8DB760
:1051D0009EB74C960FB6F8949EBF0FBE8DBF8AEE59
:1051E00091E00E94C2170E94F9249093E7018093F6
:1051F000E60108951F93CF93DF938091E60190918C
:10520000E7010E9411254091E901442321F02091FA
:10521000060130E006C0209107015AE0259F900169
:1052200011248217930708F46AC08091EB01109152
:10523000EC01D091ED01C091EE01811107C0111177
:1052400005C0D11103C0CC2309F459C04F3F19F058
:105250004F5F4093E901181624F40E94FF268093C3
:10526000EB018091EB0187FF05C00E94FF2681952D
:105270008093EB01111624F40E94FF268093EC0129
:105280008091EC0187FF05C00E94FF2681958093E5
:10529000EC012091EB01222379F04091EC014423B1
:1052A00059F055EB2503900111243093EB01450390
:1052B000C00111249093EC011D1624F40E9447278D
:1052C0008093ED018091ED0187FF05C00E94472783
:1052D00081958093ED011C1624F40E94472780934A
:1052E000EE018091EE0187FF05C00E94472781955E
:1052F0008093EE01DF91CF911F910C946D28DF9187
:10530000CF911F910895EAEEF1E085E0DF011D9253
:105310008A95E9F71092E9011092E801089589E071
:105320009BE00E941B0A1F9281E08F931F9285E0F1
:105330008F938BEB9AE09F938F930E94B40A0F9008
:105340000F900F900F900F900F9008958330E9F118
:1053500028F4813061F0823009F10895853009F434
:1053600062C008F449C0863009F474C008952091E1
:105370000701862F90E0820F911D8F3F910520F449
:10538000620F6093070103C08FEF80930701809144
:1053900007011F928F9384EF99E072C0209106015C
:1053A000862F90E0820F911D8F3F910520F4620FB0
:1053B0006093060103C08FEF809306018091060180
:1053C0001F928F9382EE99E05BC020910501862F9A
:1053D00090E0820F911D8F3F910520F4620F609342
:1053E000050103C08FEF80930501809105011F9295
:1053F0008F938FEC99E044C020910401862F90E0B8
:10540000820F911D8F3F910520F4620F609304017C
:1054100003C08FEF80930401809104011F928F934A
:105420008AEB99E02DC020910301862F90E0820F36
:10543000911D8F3F910520F4620F6093030103C01B
:105440008FEF80930301809103011F928F9381EA74
:1054500099E016C020910201862F90E0820F911DE5
:105460008F3F910520F4620F6093020103C08FEF1C
:1054700080930201809102011F928F9386E899E048
:105480009F938F930E94B40A0F900F900F900F90EC
:105490000895833081F128F4813059F08230D1F0C1
:1054A0000895853009F449C0B8F1863009F456C032
:1054B000089580910701681720F4861B80930701E7
:1054C00002C010920701809107011F928F9387E716
:1054D00099E054C080910601681720F4861B8093E0
:1054E000060102C010920601809106011F928F935F
:1054F00085E699E043C080910501681720F4861B7A
:105500008093050102C010920501809105011F9250
:105510008F9382E599E032C080910401681720F4EE
:10552000861B8093040102C0109204018091040143
:105530001F928F938DE399E021C08091030168173A
:1055400020F4861B8093030102C010920301809116
:1055500003011F928F9384E299E010C080910201B1
:10556000681720F4861B8093020102C0109202018A
:10557000809102011F928F9389E099E09F938F930E
:105580000E94B40A0F900F900F900F900895CF9340
:10559000C82F1F928F932EE03CE03F932F930E94E1
:1055A000B40A61E070E080E090E004C0660F771F0D
:1055B000881F991FCA95D2F70E9485210F900F90DE
:1055C0000F900F90CF910C94701DCF938B3109F4F5
:1055D000CBC108F049C08E3009F4D9C100F587303D
:1055E00009F4A9C1A8F4863009F05FC28091E401F2
:1055F000817F8E7F8093E4018FE99DE00E941B0AEA
:105600008CE591E10E941B0A81E08093F00191C139
:10561000883009F45BC08B3009F487C146C2813100
:1056200009F426C220F4803109F4C4C13EC2863197
:1056300009F4DAC1893109F038C280E99DE00E949D
:105640001B0A85E79DE00E941B0A85E39DE00E94FE
:105650001B0A87E09DE00E941B0A82EC9CE00E94EE
:105660001B0A84E99CE063C1853309F41AC268F41B
:10567000873209F416C228F48E3108F416C28D510F
:1056800011C2893209F40DC210C2833438F48A334E
:1056900008F005C2883309F448C107C2833409F40D
:1056A00000C2883409F001C20E94701D80E491E1BB
:1056B0000E941B0A9FEF23ED80E391502040804021
:1056C000E1F700C000000E94602533C180E691E14F
:1056D0000E941B0A8DEA90E10E941B0A0E94C023CF
:1056E0001F928F938AEA90E19F938F930E94B40A4E
:1056F00088EA90E10E941B0A0E94B723C82F85E91F
:1057000090E10E941B0A1F92CF9320E930E13F9362
:105710002F930E94B40A8EE890E10E941B0A84E84D
:1057200090E10E941B0A8C2F81701F928F9321E8B9
:1057300030E13F932F930E94B40A8FE790E10E94DB
:105740001B0A85E790E10E941B0AC1FB882780F9AC
:105750001F928F9322E730E13F932F930E94B40A68
:1057600080E790E10E941B0A84E690E10E941B0AF8
:10577000C2FB882780F91F928F9321E630E13F9387
:105780002F930E94B40A8FE590E10E941B0A86E5E0
:1057900090E10E941B0AC3FBCC27C0F91F92CF9354
:1057A00083E590E19F938F930E94B40A81E590E195
:1057B0000E941B0A0E94C923C82F8DE390E10E941A
:1057C0001B0A1F92CF9328E330E13F932F930E944F
:1057D000B40A86E390E10E941B0A8DE190E10E94E9
:1057E0001B0A8C2F81701F928F932AE130E13F9327
:1057F0002F930E94B40A8DB79EB780960FB6F89487
:105800009EBF0FBE8DBF88E190E10E941B0A81E020
:1058100090E10E941B0AC1FB882780F91F928F9399
:105820002EEF3FE03F932F930E94B40A8CEF9FE04E
:105830000E941B0A8AEE9FE00E941B0AC2FB882777
:1058400080F91F928F9327EE3FE03F932F930E94A2
:10585000B40A85EE9FE00E941B0A83ED9FE00E9440
:105860001B0AC3FB882780F91F928F9320ED3FE02E
:105870003F932F930E94B40A8EEC9FE00E941B0A74
:1058800084EC9FE00E941B0AC4FB882780F91F92CA
:105890008F9321EC3FE03F932F930E94B40A8FEB4C
:1058A0009FE00E941B0A8DEA9FE00E941B0AC5FB35
:1058B000882780F91F928F932AEA3FE03F932F9326
:1058C0000E94B40A88EA9FE00E941B0A8CE89FE0CD
:1058D0000E941B0AC6FB882780F91F928F9329E834
:1058E0003FE03F932F930E94B40A87E89FE00E9415
:1058F0001B0A8FE79FE00E941B0AC7FBCC27C0F959
:105900001F92CF938CE79FE09F938F930E94B40ADE
:105910008AE79FE00E941B0A8DB79EB74C960FB690
:10592000F8949EBF0FBE8DBF04C086EC9DE00E9420
:105930001B0AC1E0BFC08091E401C82FC095C170AF
:10594000C0FB80F98093E401CC2319F084E391E15A
:10595000A0C087E291E10E941B0A8091E401897F47
:10596000877F8093E401E5CF8091E40181FBCC2720
:10597000C0F991E0C927C0FB81F98093E401CC23F1
:1059800019F08AE191E125C08CE091E1D0CF8091BE
:10599000E40182FBCC27C0F991E0C927C0FB82F962
:1059A0008093E401CC2319F08DEF90E112C08DEECD
:1059B00090E1BDCF8091E40183FBCC27C0F991E059
:1059C000C927C0FB83F98093E401CC2351F081EE19
:1059D00090E10E941B0A8091E40181608093E401C0
:1059E00069C084ED90E1A3CF86E89CE00E941B0A89
:1059F0000E9471171F928F938CE69CE09F938F9368
:105A00000E94B40A809112011F928F9385E59CE059
:105A10009F938F930E94B40A809115021F928F93D7
:105A200082E49CE09F938F930E94B40A80912B02A2
:105A300087FB882780F91F928F938AE29CE09F93CF
:105A40008F930E94B40A0E9405259F938F937F93A2
:105A50006F9383E19CE09F938F930E94B40A8DB76C
:105A60009EB746960FB6F8949EBF0FBE8DBF61CF0E
:105A70000E94701D80912B0287FBCC27C0F991E01A
:105A8000C927C0FB87F980932B02CC2329F08AEC2D
:105A900090E10E941B0A0EC08FEB90E148CF895322
:105AA00001C080E00E94C72A44CF8DEB90E10E94A4
:105AB0001B0AC0E08C2FCF91089580E0089580E00C
:105AC00008958E518A3030F4E82FF0E0ED5DFE4FFE
:105AD0008081089580E00895CF93C82F8091F001D0
